:020000040800F2
:10280000480B0020352D00083D2B00083F2B000809
:10281000432B0008472B00084B2B0008000000004A
:102820000000000000000000000000004F2B000826
:10283000512B0008000000004B2D00084D2D000812
:102840004F2D00084F2D00084F2D00084F2D000878
:102850004F2D00084F2D00084F2D00084F2D000868
:102860004F2D00084F2D00084F2D00084F2D000858
:102870004F2D00084F2D00084F2D00084F2D000848
:102880004F2D00084F2D00084F2D00084F2D000838
:102890004F2D00084F2D00084F2D00084F2D000828
:1028A0004F2D00084F2D00084F2D00084F2D000818
:1028B0004F2D00084F2D0008000000004F2D00088C
:1028C0004F2D000800000000000000004F2D000800
:1028D00000000000553C00084F2D000800000000DB
:1028E0004F2D00084F2D00084F2D000800F002F872
:1028F00000F03AF80AA090E8000C82448344AAF160
:102900000107DA4501D100F02FF8AFF2090EBAE85D
:102910000F0013F0010F18BFFB1A43F00103184713
:102920000036000020360000103A24BF78C878C175
:10293000FAD8520724BF30C830C144BF04680C60C5
:10294000704700000023002400250026103A28BF0D
:1029500078C1FBD8520728BF30C148BF0B60704711
:102960001FB51FBD10B510BD02F098F81146FFF756
:10297000F7FF00F00DF802F0B6F803B4FFF7F2FF2E
:1029800003BC01F08BF8000080F30888704700005A
:1029900086B0142101A802F056F81E244FF42051ED
:1029A0004FF0006000F01DFA00F0F6FF4FF4A06059
:1029B00000F0E0F94FF4E13001F080F801F056F852
:1029C00001F01AFF01F0CFFC002001F03BFD01F007
:1029D00056FD01A801F0CFF947A101A801F0E0F9E7
:1029E000012301AA1946002001F0F5FD01F02BFE9C
:1029F00001F045FD4FF47A7001F00BF84FF47A7056
:102A000001F007F84FF47A7001F003F802F00AF8C9
:102A100071E001F034FD01A801F0ADF93AA101A87F
:102A200001F0BEF93948008802F0EEFA07460022AC
:102A3000374B02F04BF90546012201F030FA81468E
:102A4000494601A801F0ACF932A101A801F0A8F9AA
:102A5000002301AA1946022001F0BDFD01A801F0E2
:102A60008AF92FA101A801F09BF92E48008802F0F5
:102A7000CBFA07460022264B02F028F90546012230
:102A800001F00DFA8146494601A801F089F926A115
:102A900001A801F085F9002301AA0121022001F01B
:102AA0009AFD01F0D0FD1E2C04DB00241D491748BF
:102AB00001F02BFF1E480078012803D01C48007845
:102AC000032811D100201A49087000BF1948006876
:102AD00000F4E06018490843001D16490860BFF380
:102AE0004F8F00BF00BFFEE700F03FFFC82000F09F
:102AF00090FF601CC4B28CE743555252454E54209F
:102B00005354415445000000543A20003400002042
:102B10000000244064656720202020200000000081
:102B2000483A2000360000202520202020200000E8
:102B3000300000200CED00E00000FA05704700BFF7
:102B4000FEE700BFFEE700BFFEE700BFFEE77047FD
:102B5000704700000CB50020019000906C480068A0
:102B600040F480306A49086000BF6948006800F49A
:102B7000003000900198401C0190009818B901980D
:102B8000B0F5A06FF1D16248006800F4003010B1D8
:102B90000120009001E0002000900098012843D11E
:102BA0005C48006840F010005A4908600846006818
:102BB00020F0030008600846006840F0020008604A
:102BC0005348406852494860084640684860084693
:102BD000406840F4806048600846406820F47C10FB
:102BE00048600846406840F4E810486008460068BD
:102BF00040F08070086000BF4548006800F0007039
:102C00000028F9D04248406820F00300404948605D
:102C10000846406840F00200486000BF3C484068F9
:102C200000F00C000828F9D10CBD10B5FFF792FF99
:102C300010BD10B53648006840F001003449086006
:102C400008464068344908403149486008460068F1
:102C5000324908402E4908600846006820F4802068
:102C600008600846406820F4FE0048604FF41F00EA
:102C70008860FFF7DAFF4FF000602949086010BD57
:102C800010B5002100200022214B5B6803F00C01ED
:102C900021B1042906D0082928D107E0214B224C74
:102CA000236027E01F4B204C236023E0184B5B6818
:102CB00003F47010164B5B6803F48032022303EBBD
:102CC000904022B9194B4343174C23600DE0104B41
:102CD0005B6803F4003323B1144B4343124C23606D
:102CE00003E0104B4343104C236003E00D4B0E4CAC
:102CF000236000BF00BF064B5B68C3F303130C4C9B
:102D0000E15C094B1B68CB40074C236010BD000001
:102D100000100240002002400000FFF8FFFFF6FE16
:102D200008ED00E000127A000000002000093D00DC
:102D3000040000200948804709480047FEE7FEE7F5
:102D4000FEE7FEE7FEE7FEE7FEE7FEE7FEE7FEE75B
:102D500004480549054A064B70470000332C00081B
:102D6000ED28000848050020480B002048070020F7
:102D70004807002031490143314A1160704770B55E
:102D8000002100230F22C47804B32D4C246804F4DE
:102D9000E064C4F5E064210AC1F10403CA40447848
:102DA00004FA03F18478144021430901254C067884
:102DB000A155047804F01F050124AC4005786D117D
:102DC000AD0005F1E025C5F8004109E0047804F004
:102DD0001F050124AC401C4D0678761145F82640AD
:102DE00070BD1A4A0A400243154B1B1F1A607047F8
:102DF00039B1134A121D12680243114B1B1D1A6090
:102E000006E00F4A121D126882430D4B1B1D1A600B
:102E10007047042808D14FF0E021096941F004010E
:102E20004FF0E022116107E04FF0E021096921F045
:102E300004014FF0E0221161704700000000FA0524
:102E40000CED00E000E400E080E100E080FFFF1F07
:102E500010B50446CC48844208D10121042000F07A
:102E60002DFB0021042000F029FB46E0C7488442E6
:102E700008D10121082000F021FB0021082000F0EA
:102E80001DFB3AE0C248844208D10121102000F025
:102E900015FB0021102000F011FB2EE0BD488442FC
:102EA00008D10121202000F009FB0021202000F0A2
:102EB00005FB22E0B848844208D10121402000F0FF
:102EC000FDFA0021402000F0F9FA16E0B3488442F0
:102ED00008D10121802000F0F1FA0021802000F0CB
:102EE000EDFA0AE0AE48844207D10121801500F0D6
:102EF000E5FA0021A01500F0E1FA10BD10B501219E
:102F0000084600F0DBFA0021012000F0D7FA10BDDE
:102F10002DE9F04102460025002600200023002470
:102F2000002791F803C00CF00F0591F803C00CF0D6
:102F3000100CBCF1000F03D091F802C04CEA05055B
:102F400091F800C0BCF1000F31D0146800202BE0D4
:102F50004FF0010C0CFA00F3B1F800C00CEA0306C4
:102F60009E4220D183004FF00F0C0CFA03F7BC43B4
:102F700005FA03FC4CEA040491F803C0BCF1280FE5
:102F800006D14FF0010C0CFA00FCC2F814C00AE0A4
:102F900091F803C0BCF1480F05D14FF0010C0CFAB9
:102FA00000FCC2F810C0401C0828D1D31460B1F84E
:102FB00000C0BCF1FF0F34DD546800202EE000F1AA
:102FC000080C4FF0010808FA0CF3B1F800C00CEA45
:102FD00003069E4221D183004FF00F0C0CFA03F739
:102FE000BC4305FA03FC4CEA040491F803C0BCF1AD
:102FF000280F05D100F1080C08FA0CF8C2F814806B
:1030000091F803C0BCF1480F07D100F1080C4FF054
:10301000010808FA0CF8C2F81080401C0828CED32A
:103020005460BDE8F0814FF6FF710180022181708C
:103030000421C17070470246002093680B400BB119
:10304000012000E0002070470146886880B2704788
:1030500002460020D3680B400BB1012000E00020A5
:1030600070470146C86880B270470161704741618E
:1030700070470AB1016100E041617047C16070476B
:103080004FF480320A438261816182618269826980
:10309000704702460020434B18684FF68073184073
:1030A00040EA021008433F4B186070473E49C86130
:1030B0007047F0B50A46002300240021002500F0E7
:1030C0000046B6F1004F02D1364EF16901E0354EAF
:1030D0007168C0F3034583B200F44016B6F5401F93
:1030E00008D121F070612F4E766826F070662D4F62
:1030F0007E6012E000F48016B6F5801F06D103262C
:1031000006FA05F4A14341F0706106E0460D360170
:1031100003FA06F6B14341F0706122B1460D360163
:1031200003FA06F6314300F00046B6F1004F02D133
:103130001C4EF16101E01B4E7160F0BD30B5002204
:103140008B071C0F0F2303FA04F2164B08338C1065
:1031500053F824309343134C08348D1044F8253031
:1031600023468C1053F824308C07240F00FA04F403
:1031700023430C4C08348D1044F8253030BD0A49E7
:10318000DC3108607047000000080140000C01407D
:10319000001001400014014000180140001C0140D3
:1031A000002001400000014000002042DF4800688C
:1031B00040F00100DD49086008464068DC490840ED
:1031C000DA49486008460068DA490840D74908608B
:1031D0000846006820F4802008600846406820F413
:1031E000FE0048604FF41F0088607047CF490968AF
:1031F00021F48031CD4A11601146096821F4802103
:103200001160B0F5803F03D0B0F5802F0ED106E0FD
:10321000C649096841F48031C44A116007E0C349D6
:10322000096841F4A021C14A116000E000BF00BF5D
:10323000704710B501460022002300204A11012AE0
:1032400002D1BA4C236806E0022A02D1B74C236AA5
:1032500001E0B64C636A01F01F02012494401C4057
:103260000CB1012000E0002010BD38B50020009016
:103270000024002500BF3120FFF7DBFF0546009842
:10328000401C00900098B0F5A06F01D0002DF2D046
:103290003120FFF7CEFF08B1012400E000242046D2
:1032A00038BD01460020A14A106820F0F80040EA2D
:1032B000C10010607047A0490860704702460020B6
:1032C0009A4B586820F47C1042EA01031843974B4C
:1032D0005860704798490866704701460020934A35
:1032E000506820F003000843506070478F484068E2
:1032F00000F00C007047014600208C4A506820F016
:10330000F00008435060704701460020874A50682B
:1033100020F4E06008435060704701460020834A73
:10332000506820F4605040EAC1005060704729B1F5
:103330007E4A527A02437D4B5A7204E07B4A527AAB
:1033400082437A4B5A7270477B49D8310860704784
:1033500001460020754A506820F440400843506000
:1033600070470021714A20321170704A82F8201093
:10337000012802D004280AD104E001216B4A20323E
:10338000117005E00521694A2032117000E000BF8C
:1033900000BF70476949086070476449096A014382
:1033A000624A11627047654944390860704730B518
:1033B00000210022002400235C4D6D6805F00C0103
:1033C00021B1042905D0082923D105E05C4D056011
:1033D00022E05B4D05601FE0544D6D6805F47012EE
:1033E000524D6D6805F48034022505EB92421CB9FC
:1033F000544D554305600BE04C4D6D6805F40035A8
:103400001DB1504D5543056002E04D4D55430560DB
:1034100002E04B4D056000BF00BF444D6D6805F0F4
:10342000F0010909484D6B5C0568DD4045603F4D82
:103430006D6805F4E061090A434D6B5C4568DD4049
:1034400085603A4D6D6805F46051C90A3E4D6B5C6C
:103450004568DD40C560354D6D6805F44041890B18
:103460003A4D6B5CC568B5FBF3F5056130BD29B11C
:103470002E4A526902432D4B5A6104E02B4A52698D
:1034800082432A4B5A61704729B1284A9269024304
:10349000264B9A6104E0254A92698243234B9A6144
:1034A000704729B1214AD2690243204BDA6104E016
:1034B0001E4AD26982431D4BDA61704729B11B4A0B
:1034C000D2680243194BDA6004E0184AD26882439A
:1034D000164BDA60704729B1144A12690243134B44
:1034E0001A6104E0114A12698243104B1A61704755
:1034F00012494039086070470F49C86470470B494A
:10350000C87170470948406A40F0807007494862B6
:10351000704701460020054A92680A400AB101201E
:1035200000E0002070470149887270470010024097
:103530000000FFF8FFFFF6FE000042428004424216
:1035400000127A0000093D00140000202400002031
:1035500010B50446FB48844209D101218803FFF7D6
:10356000ADFF00214FF48040FFF7A8FF32E0F6489E
:10357000844209D101214804FFF7ADFF00214FF437
:103580000030FFF7A8FF25E0F048844209D101216F
:103590008804FFF7A0FF00214FF48020FFF79BFF76
:1035A00018E0EB48844209D10121C804FFF793FFDA
:1035B00000214FF40020FFF78EFF0BE0E548844226
:1035C00008D101210805FFF786FF00214FF4801084
:1035D000FFF781FF10BD2DE9F04786B005460E4686
:1035E0000024A24600BFA1460027B08900B100BF59
:1035F0002F462C8A4CF6FF700440F08804432C823E
:10360000AC894EF6F3100440B088318908437189C3
:1036100008430443AC81AC8A4FF6FF400440B089B4
:103620000443AC8201A8FFF7C2FEC648874202D11C
:10363000DDF810A001E0DDF80CA0A88900F400403E
:1036400040B10AEBCA0000EB0A1031684900B0FB38
:10365000F1F807E00AEBCA0000EB0A1031688900B4
:10366000B0FBF1F86420B8FBF0F0040120096421FC
:1036700001FB1089A88900F4004040B1322000EB22
:10368000C900B0FBF1F000F00700044308E032206D
:1036900000EB09106421B0FBF1F000F00F000443CF
:1036A0002C8106B0BDE8F0874FF41651016000216F
:1036B0008180C18001810C2141810021818170477D
:1036C00010B502460020108A4FF2FF0318400B8805
:1036D0004C8823438C882343CC882343184310828F
:1036E00010BD0021018041808180C180704721B1DF
:1036F000828942F40052828104E082894DF6FF7390
:103700001A4082817047F0B5034600240026002548
:10371000002040F66A17B94200D100BF1846C1F335
:10372000421401F01F06012707FA06F5012C01D10A
:103730000C3004E0022C01D1103000E014301AB13A
:1037400007682F43076002E00768AF430760F0BDDA
:103750001AB1838A0B43838202E0838A8B4383827C
:103760007047028A4FF6F0731A400282028A0A43B7
:103770000282704782894FF2FF731A4082818289E8
:103780000A438281704721B1828942F0020282811C
:1037900004E082894FF6FD731A4082817047028AE5
:1037A0004FF6DF731A400282028A0A430282704790
:1037B00021B1028A42F48042028204E0028A4BF67E
:1037C000FF731A4002827047C1F30802828070477B
:1037D00001468888C0F308007047818941F00101E3
:1037E00081817047028BD2B20283028B42EA0122AE
:1037F00002837047028B02F47F420283028B0A43EA
:103800000283704721B1828A42F02002828204E062
:10381000828A4FF6DF731A408282704721B1828A12
:1038200042F01002828204E0828A4FF6EF731A405F
:103830008282704721B1828A42F00802828204E0CB
:10384000828A4FF6F7731A408282704721B18289CB
:1038500042F40042828103E08289C2F30E02828137
:10386000704721B1828A42F40062828204E0828A37
:103870004FF2FF731A4082827047828A4FF6FB73C1
:103880001A408282828A0A438282704721B1828AE8
:1038900042F00202828204E0828A4FF6FD731A40EF
:1038A0008282704702460020B1F5007F00D100BF40
:1038B00013880B400BB1012000E00020704701F499
:1038C0000072B2F5007F00D100BFCA43028070478A
:1038D00070B50246002400230025002040F66A1639
:1038E000B14200D100BFC1F3421501F01F03012610
:1038F00006FA03F3012D02D19689334006E0022D2A
:1039000002D1168A334001E0968A33400C12012618
:1039100006FA04F41688344013B10CB1012000E01B
:10392000002070BD10B50022002340F66A14A142A9
:1039300000D100BF0A1201249440A3B2DC430480EA
:1039400010BD000000380140004400400048004025
:10395000004C0040005000400E49086070470D497F
:10396000486070470B49886070474AF6AA200949A9
:10397000086070474CF6CC40064908607047014625
:103980000020044AD2680A400AB1012000E0002069
:10399000704700000030004010B56FF00400FFF7E2
:1039A00038FA2E4800682E49B0FBF1F02D49087016
:1039B0000846007800EB4001C1EBC0104FF6FF71E4
:1039C00001EAC0002849088010BD0146254A127846
:1039D0004A434FF0E0235A6100229A611A46126965
:1039E00042F001021A6100BF4FF0E022106900F0BE
:1039F00001021AB100F48032002AF5D04FF0E02223
:103A0000126922F001024FF0E0231A6100229A614C
:103A100070470146144A12884A434FF0E0235A6126
:103A200000229A611A46126942F001021A6100BF2F
:103A30004FF0E022106900F001021AB100F4803268
:103A4000002AF5D04FF0E022126922F001024FF077
:103A5000E0231A6100229A617047000000000020F4
:103A600000127A00280000202A00002008B54FF438
:103A70000050ADF8000010208DF8030003208DF8F1
:103A8000020069460448FFF743FA4FF40051024828
:103A9000FFF7EBFA08BD00000010014000BF7047BF
:103AA00000BF704700BF9F4A128802F04002002A00
:103AB000F9D0C2B29B4B1B1D1A80704710B586B05F
:103AC0000446012144F20400FFF7DEFC4FF40070CD
:103AD000ADF8140003208DF8160018208DF817009B
:103AE00005A99148FFF714FA4FF48060ADF814006F
:103AF00004208DF8170005A98B48FFF709FA252047
:103B00008DF8000003208DF801008DF802000120DF
:103B10008DF803006846FFF732F901940020ADF8F4
:103B20000800ADF80A00ADF80C00ADF810000C204C
:103B3000ADF80E0001A97B48FFF74DFD012240F2D0
:103B400025517848FFF7DFFD01217648FFF7CFFDCB
:103B500006B010BD70B502460B46002500210024BA
:103B60004FF6FF7000BF12E0555C684000240AE089
:103B700000F0010626B140104AF20106704000E054
:103B80004010661CB4B2082CF2DB4E1CB1B2994254
:103B9000EADB70BD10B5044621466248FFF714FE0B
:103BA00000BF40215F48FFF77DFE0028F9D010BD1F
:103BB0002DE9FC5F06460F4615460024A0464FF04F
:103BC00005094FF0020A4FF0080B00200090019009
:103BD00055208DF80000AA208DF801008DF80260B4
:103BE00028128DF80300E8B28DF8040000BF06E04B
:103BF000385D04EB09010DF80100601C84B2AC4291
:103C0000F6DBCAF1080081B26846FFF7A3FF8046E1
:103C10004FEA28208DF8060008F0FF008DF8070015
:103C2000002405E01DF80400FFF7B4FF601C84B217
:103C3000082CF7DBBDE8FC9F70B5044620683B49C3
:103C40000840B0F1005F04D165682068FEF79CFE73
:103C5000A84770BD2DE9F04100240025002600276B
:103C600040F225512F48FFF733FE002857D02D484A
:103C7000FFF7AEFDC1B22E4802880088401C2C4BD5
:103C800018802C4881541846008840F21A41884216
:103C900045DB00201946088000BF1CE02548005D78
:103CA000552816D12349601C085CAA2811D1A01CF4
:103CB000085C55280DD1E01C085CAA2809D1201DFC
:103CC0000E5C4FF6FF7000EA0626601D085C064396
:103CD00005E0601C84B240F21A408442DEDB00BF83
:103CE000A01940F21A41884219DA00250AE0124868
:103CF000405D71190F4A515C884201D1781CC7B2EE
:103D0000681C85B2102DF2DB102F08DBA01D84B2D9
:103D10002046611C8CB20749085C08490870BDE860
:103D2000F081000000380140000801400000FE2F33
:103D30003200002038000020520400203000002013
:103D400010B50A46002100BF01E04B1CD9B2435C0C
:103D5000002BFAD1425400244B1CC45410BD002146
:103D600000BF01E04A1CD1B2425C002AFAD1002314
:103D70004A1E83547047002100BF03E000224254D2
:103D80004A1CD1B2425C002AF8D17047014600209B
:103D900000BF01E0421CD0B20A5C002AFAD1704791
:103DA00070B504460D4600232046FFF7EFFF064698
:103DB000002304E0E85CF1186054581CC3B2E85CCE
:103DC0000028F7D1F118605470BD70B505460C4657
:103DD000002300262846FFF7D9FF03462046FFF7B9
:103DE000D5FF06469E4201D0002070BD05E0E85C8C
:103DF000E15C884201D00020F7E7181EA3F1010121
:103E0000CBB2F4D10120F0E730B503460022002404
:103E1000012100BF09019942FCD900BF0909B3FB88
:103E2000F1F000F00F040A2C04DA04F13000CA4D5E
:103E3000A85403E004F13700C74DA854501CC2B287
:103E40000129EBD80020C44DA854284630BD30B518
:103E5000014600230122002905DA49422D20BF4CEA
:103E6000E054581CC3B200BF02EB820042008A42F9
:103E7000FADD00BF0A2092FBF0F291FBF2F00A2477
:103E800090FBF4F504FB15003030B44CE054581CA2
:103E9000C3B2012AEEDC0020E054204630BD2DE9FB
:103EA000F04F85B005460E4692460024A3464FF0DB
:103EB00001090120049000BF002213462846314624
:103EC00001F0B6F806D286F000462D20A449085528
:103ED000601CC4B22846314601F050F8834658466B
:103EE00001F07BF82A463346CDE9020101F0DAF908
:103EF0000746884600BF09EB89004FEA4009D945CB
:103F0000F9DD00BF0A2099FBF0F99BFBF9F00A21CB
:103F100090FBF1F201FB1200303091490855601C12
:103F2000C4B2B9F1010FEDDCBAF1000F2CDD2E2087
:103F3000085500BF601CC4B2AAF1010000F0FF0ADE
:103F4000049800EB800040000490049801F045F8CC
:103F50003A464346CDE9000101F0A6F8CDE9020159
:103F600001F00CF80A2190FBF1F201FB1200303055
:103F70007B490855BAF1000FDCD10021601CC0B2AA
:103F80000446774A115402E00020754908557448E8
:103F900005B0BDE8F08F10B50146002201230024D2
:103FA000087808B9002010BD08782D2808D00878B6
:103FB000302802DB0878392802DD4FF0AA30F2E71A
:103FC00008782D2801D1012000E00020024604E0FD
:103FD00003EB83004300501CC2B2885C0028F7D179
:103FE00008782D2801D1012000E00020024608E0D9
:103FF0000A2093FBF0F3885C303800FB0344501C2C
:10400000C2B2885C0028F3D108782D2801D1604223
:1040100000E0204604462046C5E72DE9FF5F044640
:1040200000274FF00108B946DFF838A10020054607
:1040300006468346207820B90020014604B0BDE83A
:10404000F09F20782D2808D02078302802DB2078B7
:10405000392802DD00200146F0E7012718E0E05D85
:10406000302802DBE05D392810DDE05D2E2804D128
:104070000BF1010000F0FF0B02E000200146DDE73C
:10408000BBF1010F02DD00200146D7E7781CC7B263
:10409000E05D0028E3D120782D2801D1012000E047
:1040A0000020074605E008EB88004FEA4008781C2E
:1040B000C7B2E05D2E28F6D120782D2801D101204D
:1040C00000E00020074612E00A2098FBF0F8E15DCE
:1040D000303901FB08F000F080FF2A463346CDE975
:1040E000020100F03FFD05460E46781CC7B2E05DB8
:1040F0002E28E9D1781CC7B21CE000221A4B484692
:10410000514600F0E3FD81468A46E15DA1F13000B1
:1041100000F063FF4A465346CDE9000100F0C4FFBA
:104120002A463346CDE9020100F01CFD05460E4645
:10413000781CC7B2E05D0028DFD120782D2803D19C
:10414000284686F0004101E02846314605460E46E5
:104150002846314672E70000620400207604002001
:104160008A0400200000F03F0000244008B501212F
:104170000820FFF789F9C020ADF8000010208DF865
:10418000030003208DF802006946F948FEF7C0FEDF
:104190000120F8490860F849C1F89C0108BD08B53C
:1041A0008020ADF8000010208DF8030003208DF86A
:1041B00002006946EE48FEF7ABFE08BD08B5802058
:1041C000ADF8000001208DF8020004208DF80300F6
:1041D0006946E748FEF79CFE08BD10B5FFF7DFFF14
:1041E0000120E449091D0860E349C1F89801002055
:1041F000E049091D0860E049C1F8980110BD10B5FB
:10420000FFF7CDFF0020DB490860DB49C1F89C01C6
:104210000120D8490860D849C1F89C0110BD10B5EB
:104220000024FFF7CBFF0120D249091D0860D249C5
:10423000C1F8980107E0601CC4B2FA2C03DDFFF757
:10424000DEFF012010BDCB487C3800680028F2D189
:10425000C849086000BFF5E710B50020C5490860EF
:10426000FFF79DFF0020C449C1F89C010120C1490E
:1042700008600020C049C1F8980110BD10B50020A9
:10428000BC490860FFF78BFF0120BB49C1F89C01C6
:10429000B84908600020B849C1F8980110BD70B550
:1042A0000446FFF77CFF0020B249086000250EE0BD
:1042B000E009B049091D08606006040E0120AE49FE
:1042C000C1F898010020AB490860681CC5B2082DF0
:1042D000EEDB70BD70B505460024FFF76FFF0026CA
:1042E00010E00020A34908600120A349C1F898010B
:1042F0006006040E9F487C38006808B1601CC4B298
:10430000701CC6B2082EECDB15B9FFF7B7FF01E051
:10431000FFF7A2FF204670BD70B505460C4672B689
:10432000FFF75BFF7820FFF7BAFFFFF778FF28461B
:10433000FFF7B5FFFFF773FF2046FFF7B0FFFFF76A
:104340006EFFFFF75CFF62B670BD10B504462146F4
:104350000020FFF7E1FF10BD10B5044621464020C4
:10436000FFF7DAFF10BD10B5FFF700FF6420FFF77D
:1043700050FBAE20FFF7E9FF2020FFF7E6FF1020FB
:10438000FFF7E3FFB020FFF7E0FFC820FFF7DDFFF6
:104390000020FFF7DAFF1020FFF7D7FF4020FFF7DC
:1043A000D4FF8120FFF7D1FFFF20FFF7CEFFA12030
:1043B000FFF7CBFFA620FFF7C8FFA820FFF7C5FF38
:1043C0003F20FFF7C2FFA420FFF7BFFFD320FFF776
:1043D000BCFF0020FFF7B9FFD520FFF7B6FFF020A4
:1043E000FFF7B3FFD920FFF7B0FF2220FFF7ADFFA3
:1043F000DA20FFF7AAFF1220FFF7A7FFDB20FFF765
:10440000A4FF2020FFF7A1FF8D20FFF79EFF1420BF
:10441000FFF79BFFAF20FFF798FF10BD70B5044674
:104420000D4605F1B001C8B2FFF78FFF102141EA38
:104430001410FFF78AFF04F00F0141F00100FFF7AD
:1044400084FF70BD70B50646002415E004F1B0018C
:10445000C8B2FFF77AFF0020FFF777FF1020FFF7C1
:1044600074FF002504E03046FFF776FF681CC5B2F4
:10447000802DF8DB601CC4B2082CE7DB70BD10B5E2
:10448000002013E0002107E0202200EB00133B4C4A
:1044900023445A544A1CD1B21029F5DB002200EB08
:1044A0000013364C23445A54421CD0B20428E9DB92
:1044B00010BD10B58D20FFF748FF1420FFF745FF12
:1044C000AF20FFF742FF10BD10B58D20FFF73DFF75
:1044D0001020FFF73AFFAE20FFF737FF10BD2DE9A0
:1044E000F0470646894617469A464FF000080024D2
:1044F0000025BAF1010F03D0BAF1020F68D125E00F
:1045000020E0785D203800F0FF087E2E04DD0026D4
:1045100009F1010000F0FF0949463046FFF77EFF30
:10452000002409E008EB4801154A02EB4101085D4F
:10453000FFF712FF601CC4B2062CF3DBB01DC6B23D
:10454000681CC5B2785D0028DBD141E03CE0785DB5
:10455000203800F0FF08782E04DD002609F1010064
:1045600000F0FF0949463046FFF758FF002411E0EC
:10457000000C014098812142008021429E040020CD
:104580000857000804EB0811984A505CFFF7E4FE56
:10459000601CC4B2082CF5DB09F10100C1B2304641
:1045A000FFF73CFF002408E004EB081108318F4AB4
:1045B000505CFFF7D1FE601CC4B2082CF4DB06F19E
:1045C0000800C6B2681CC5B2785D0028BFD100BF24
:1045D00000BFBDE8F087F0B504460020FBB100BF86
:1045E00001E0451CE8B2155C002DFAD1102800DB73
:1045F0001020054600EBD5767610C6F10806F4B219
:10460000002008E0155C01EB0116794F3E442718A5
:10461000F555451CE8B2155C002DF3D112E00020E1
:104620000CE02518102D00DB0BE0155C01EB0116EA
:104630006F4F3E442718F555451CE8B2155C002D18
:10464000EFD100BFF0BD10B5002400BF0DE004EBBA
:104650000410674BC218012000EB4400C1B20223D2
:104660000020FFF73CFF601CC4B2032CEFDB10BD41
:1046700010B502235E4A01210020FFF730FF02231C
:104680005B4A113204210020FFF729FF10BD10B54D
:10469000002400BF0BE004EB0410554BC218600669
:1046A000010E02230020FFF71AFF601CC4B2042C85
:1046B000F1DB10BD2DE9F04180460E46174600247F
:1046C0007D0131464046FFF7A9FE00BF08E0494999
:1046D000495DC943C8B2FFF73FFE6D1C601CC4B200
:1046E000102CF4DB701CC1B24046FFF797FE00248B
:1046F00008E04049495DC943C8B2FFF72DFE6D1C73
:10470000601CC4B2102CF4DBBDE8F0812DE9F05F31
:1047100006460F4690461C46DDF828A04FF0000BD9
:10472000E11704EB5171C910A4EBC10131B9204666
:10473000E11704EB5171C1F3C70506E02046E1170C
:1047400004EB5171C910491CCDB23D4614E0294615
:104750003046FFF763FEB1460AE059460BF1010B04
:104760001AF80100FFF7F8FD09F1010000F0FF0958
:10477000C145F2DB681CC5B2A542E8DBBDE8F09F8D
:104780002DE9F0470646884617469946002500243D
:1047900000BF27E006EB0411C8B24146FFF73EFE1A
:1047A000002507E0202101FB0451785CFFF7D4FDD0
:1047B000681CC5B2102DF5DB08F10102D1B206EB81
:1047C0000412D0B2FFF72AFE102507E0202101FBDA
:1047D0000451785CFFF7C0FD681CC5B2202DF5DBE5
:1047E000601CC4B24C45D5DBBDE8F08730590008E9
:1047F0009E0400206856000810B501210420FEF731
:1048000043FE10BD08B54FF48070ADF800001020D5
:104810008DF8030003208DF8020069467C48FEF7FE
:1048200077FB4FF480717A48FEF71FFC08BD08B58E
:104830004FF48070ADF8000004208DF80300694645
:104840007348FEF765FB08BD10B50024FFF7DAFFDB
:104850004FF480716E48FEF70AFC1420FFF7D9F878
:104860004FF480716A48FEF700FCFFF7E0FF4FF459
:10487000704400BF6748006820B1201E04F10101A8
:104880008CB2F7D14FF4704400BF6248006820B981
:10489000201E04F101018CB2F7D14FF4704400BF27
:1048A0005C48006820B1201E04F101018CB2F7D1F0
:1048B00010BD70B500260025002400BF21E04FF494
:1048C000704600BF5348006820B9301E06F1010150
:1048D0008EB2F7D11E20FFF778F86006040E4D481F
:1048E000006808B144F001044FF4704600BF494825
:1048F000006820B1301E06F101018EB2F7D1681CAC
:10490000C5B2082DDBDB204670BD2DE9F04F89B024
:1049100005460E460024A146002007900890069008
:10492000FFF792FF00BF05E0FFF7C3FF07A9085597
:10493000601CC4B2052CF7DBFFF764FF4FF48071F5
:104940003348FEF792FB002406E007A8005D4844C8
:1049500000F0FF09601CC4B2042CF6DB9DF82000B7
:10496000484503D031462846FFF7CFFF9DF81D008C
:1049700000F04AFB07460022274B00F095FB00227F
:10498000264BCDE9000100F0A1F9CDE904019DF825
:104990001C0000F039FBCDE90201DDE9042300F041
:1049A000E1F8824600F0ACF806901D49069800F048
:1049B0008FFD074600F06CFD30809DF81F0000F071
:1049C00023FB0022144BCDE9000100F06DFB824671
:1049D0000022124B00F07AF9074688469DF81E0027
:1049E00000F012FB3A464346CDE9020100F0BAF866
:1049F000CDE9040100F084F806900949069800F01A
:104A000067FD074600F044FD288009B0BDE8F08F3F
:104A100000080140200121420000F03F0000244036
:104A20000000204110B545F25550FEF795FF0620D5
:104A3000FEF795FFFA20FEF795FFFEF79BFFFEF7C6
:104A400094FF10BD70474FF0000200B51346944626
:104A50009646203922BFA0E80C50A0E80C50B1F1D6
:104A60002001BFF4F7AF090728BFA0E80C5048BFEA
:104A70000CC05DF804EB890028BF40F8042B08BF88
:104A8000704748BF20F8022B11F0804F18BF00F884
:104A9000012B70477047704770477047754600F0AC
:104AA0002BF8AE4605006946534620F007008546C0
:104AB00018B020B5FEF74CF9BDE820404FF00006D5
:104AC0004FF000074FF000084FF0000B21F00701F6
:104AD000AC46ACE8C009ACE8C009ACE8C009ACE839
:104AE000C0098D46704710B50446AFF300802046DC
:104AF000BDE81040FDF741BF00487047E4040020C6
:104B000021F00042A2F16052B2F5801F01F0004393
:104B100028BFD2F17F6C0BD95FEA001C43EAC202C6
:104B200042EB507018BF704728BF20F0010070475B
:104B3000B2F5801FBCBF184670474FEA410C1CF508
:104B4000001F02D2084600F08ABD70B500F056FB87
:104B500000000089FFF7F6BF4FF00040A0F580008D
:104B60007047000010B591EA030F48BF83F000437F
:104B700000F1AC83841A71EB030C05D2121943EBDC
:104B80000C03001B61EB0C01DFF824E14FEA115428
:104B9000A4EB135C1EEA430F18BF9EEA445F73D078
:104BA00023EA0E03DCF1200E21EA045143F48013C2
:104BB00032D322FA0CFE10EB0E0023FA0CFE41EB6E
:104BC0000E01CCF1200E03FA0EFE10EB0E0051F197
:104BD0000001B1F5801FCCF1200E32D201EB04515F
:104BE00012FA0EF2BDE8104058BF7047401C38BFA3
:104BF0005FEA420218BF7047002814BF20F001008E
:104C000041F100014FEA410313F5001F38BF70471F
:104C1000A1F1C04100F040BB012A43EB0302ACF11B
:104C2000200CDCF11F0E32BF4FF0000E23FA0CF304
:104C300010EB030041EB0451B4EB115FD0D0A1EBBA
:104C4000045101F5801149085FEA300001EB04517D
:104C50000ED350F1000038BF12FA0EFE08D1BDE8A5
:104C60001040C9E7401C38BF5FEA4202CAD1C3E71F
:104C7000BDE810404FEA410313F5001F38BF7047ED
:104C8000A1F1C04100F008BB9EEA445F08D011EAE0
:104C90005E0FBDE8104004BF01F0004100207047E6
:104CA000BDE8104070B500F0A9FA00BF64FBBE3E3D
:104CB0000000E0FF491058BFC1F140415B1058BFF0
:104CC000C3F140438B42EFF3008070472DE9C041B0
:104CD00030B4DFF8A0C23CEA111418BF3CEA131448
:104CE00000F0EC8081EA03051CEA111444EAD57453
:104CF00018BF1CEA131500F0C780A4EB05044FF0A1
:104D0000004545EAC12145EAC32341EA505143EA3F
:104D1000525304F17F74994204F500344FEAC020E5
:104D20004FEAC22208BF904200F09C804FEA136510
:104D30000FF24016765D4FEA134506FB05F7C7F103
:104D4000807706FB07F74FEAD737A7FB0368764261
:104D5000C8F58038A7FB06CE38BFA8F1010807FBCD
:104D600008E64FF0000EA6FB028CE6FB03CEDCF15A
:104D7000000CCEF1004E38BFAEF1010EA6FB0C5870
:104D80004FF000074FF00005E6FB0E87A1FB08C6B9
:104D9000A0FB07CE16EB0E0645F10005E1FB07650B
:104DA00015F1E04E7EBFA4F580345FEA46066D4102
:104DB00016F1800745F100054FEA17274FEA06660E
:104DC00047EA0567A6F1DE46B6F1805F4FEA152592
:104DD0001FD9384624F0010C05EBC471BCF1FE6FFD
:104DE00001EB0C1102D8F0BCBDE8008124425CBF8D
:104DF00001F5801E9EEAC47F02D4F0BCBDE80081AC
:104E0000244238D4F0BCA1F1C041BDE8004100F01B
:104E100043BA4FEAD22242EA43524FEAD323A7FBD6
:104E200002864FEAD02040EA415007FB03661EEAA3
:104E30000E0F4FEAD12105FB026658BFA6EB0056C4
:104E4000B6EB00564FEA520E4EEAC37E18EB0E0E3A
:104E500056EB530EBDD518EB02085E417F1C55F191
:104E60000005B6E74FF480154FF000074FF000063D
:104E70004FF00008ADE7F0BC4FF0000001F1C04179
:104E800001F00041BDE8008111EA0C1F0CEA131586
:104E900000D00CE013EA0C1F00F025804FF000005A
:104EA000F0BC81EA030101F00041BDE80081F0BCE3
:104EB000BDE8004181EA030100F0EEB9F0BCBDE8B5
:104EC000004170B500F09AF9097EFC3E00F007B889
:104ED00081EA03014FF0000001F00041704781EAD0
:104EE000030100F0D9B9F0BCBDE800414FF000006B
:104EF00021497047FFFDFBF9F7F5F4F2F0EEEDEB19
:104F0000E9E8E6E4E3E1E0DEDDDBDAD8D7D5D4D3C7
:104F1000D1D0CFCDCCCBCAC8C7C6C5C4C2C1C0BF13
:104F2000BEBDBCBBBAB9B8B7B6B5B4B3B2B1B0AF19
:104F3000AEADACABAAA9A8A8A7A6A5A4A3A3A2A1FD
:104F4000A09F9F9E9D9C9C9B9A99999897979695B8
:104F500095949393929191908F8F8E8E8D8C8C8B54
:104F60008B8A8989888887878685858484838382DC
:104F7000828181800000FF070000F87F4FEA410333
:104F80004FEA5353A3F58063D3F11E03C8BFD3F197
:104F9000210C0CDD4FF0004242EAC12242EA50529D
:104FA00032FA03FC8CEAE17CACEBE1707047102B29
:104FB000C4BF0020704703F5787CBCF1FF3F04D0EC
:104FC0006FF0004282EA2100704770B500F016F9D8
:104FD0004992248000207047F2E710F0004248BF59
:104FE0004042B0FA80F310FA03F10AD0C3F11D0376
:104FF00003F580634FEA415002EB035202EBD121EB
:1050000070474FF000007047B0FA80F310FA03F1D8
:105010000AD0C3F11D0303F580634FEA41504FEA04
:10502000035202EBD12170474FF00000704700009F
:1050300051EA030C17D41CF5801F58BFBCF5801F24
:1050400000F10680994218BF704708BF9042704730
:1050500007D711F5801F58BF13F5801F19D4994247
:105060007047894270471CF5801F08D5BCF5801F2A
:10507000F7D58B4218BF704708BF824270474FF484
:10508000001C1CEB410F38BF1CEB430F01D28B42BD
:10509000704770B500F0B2F8922449004FF000510B
:1050A0004FF08053FFF706BEDFF848C170B51CEA29
:1050B000111E1EBF1CEA13159EEA0C0F95EA0C0F79
:1050C00000F06F8081EA030423EA4C134EEAD47E99
:1050D00021EA4C1141F4801143F48013AE44A1FB4A
:1050E000024CA0FB0365AEF17F7E361955EB0C0533
:1050F000A1FB034C4CF10003A0FB021C16EB0C06B9
:10510000654153F10003094218BF46F0010613F44C
:10511000007F0BD14FEA03314FEA0530340341EAF7
:10512000155140EA16506FF003020AE04FEAC3211E
:105130004FEAC520F40241EA555140EA56506FF05B
:10514000020202EB2E4201EB025585EACE710AD033
:105150005FEA440C18BF24F0004450F1000041F114
:10516000000120EAD47040F2FE7C624500D270BD9E
:10517000A84214BF4FF080444FF04044002E08BFB7
:105180000024BEF1806FA8BFA1F1C041BDE870400E
:1051900080F282804FF0000001F1C04101F0004137
:1051A00070479EEA0C0F0CEA131518BF95EA0C0F16
:1051B00006D04FF0000081EA030E0EF0004170BDF2
:1051C00000F01CF88900013E00F007B800F009B8B3
:1051D0004FEA430C5FEA5C5C08D081EA030100F00F
:1051E0005BB84FEA410C5FEA5C5CF6D14FF000001F
:1051F000014970470000FF070000F87F0EF1020E22
:105200002EF0030E5EF8046B364205D4012A43EB00
:10521000030515F5001F12D8012841EB010C1CF500
:10522000001F0CD80ED14FEAD17C15F5001F0CEBF6
:105230004C0C0CF1020C08BF4CEBD37C04E04FF09B
:10524000080C01E04FEAD37C0CEB4C0526FA05F67E
:1052500006F00706B6F1040C06D20EEB860CBDE88C
:1052600070404CF0010C6047DFE80CF0090B0202C3
:105270004FF000414FF00000A1F5002170BD19462C
:105280001046012851EB010418BFD4F5001484BF67
:10529000002001F0004170BD0808A0F500114FEAA0
:1052A0003101704791EA030F10B581F000413FF5DD
:1052B00061AC83F0004300F009B8000010B591EA3A
:1052C000030F48BF83F000433FF554AC841A71EBE1
:1052D000030C07D212198CF0004C43EB0C03001B9B
:1052E00061EB0C01DFF8A4E14FEA1154A4EB135C6D
:1052F0001EEA430F18BF9EEA445F00F0B08023EA25
:105300006E03524221EA0451C3EB6E0338BF5B1EA9
:10531000DCF1200E25D322FA0CFE10EB0E0043FA2E
:105320000CFE41EB0E01CCF1200E03FA0EFE10EB49
:105330000E0051F10001CCF1200E29D412FA0EF228
:1053400001EB0451BDE8104058BF7047401C1CBF22
:10535000B2F1004F704700280CBF491C20F001003B
:10536000704712EB020E43EB030218BF4FF0010E21
:105370004EEA4202ACF1200CDCF11E0E54D943FA85
:105380000CFE10EB0E0051F1FF31CCF11E0ED5D505
:105390000EF1010E12FA0EFE404141EB010101EB4C
:1053A000445C5FEA5C5C10D910EBDE7001EB0451E9
:1053B00038BFBEF1004FBDE8104018BF704700284D
:1053C0000CBF491C20F00100704730D24FEAD42CAA
:1053D00011F5001124F400641BD0B1FA81F20B3AEC
:1053E000A41AA41ED2F12003914030FA03F319430A
:1053F000904001EBCC71002C01EB0451BDE8104052
:10540000A8BF704701F1C0414FF0000001F000411A
:105410007047B0FA80F310FA03F100D110BDE41A1E
:10542000173C4805C90AE4E701EB045110BD4910D7
:1054300001EB0451BDE810404FEA300002E04FF0AC
:10544000000170474A0008BF0042F8D0B2F5001FC3
:1054500028BF704701F000414FF0000070479EEAFE
:10546000445F07D011EA5E0FBDE8104004BF002181
:1054700000207047BDE8104070B5FFF7BFFE00BFC9
:1054800040DFF63E83F00041104670470000E0FF29
:10549000C10DD1F19E0206DB4FEA002343F0004329
:1054A00023FA02F07047004207D54FEA4001B1F1FC
:1054B000FE4F02D24FF00000704710B500F089F89F
:1054C00049922480002070476FEA20007047000056
:1054D0004FF47F0C1CEAD0121EBF1CEAD11392EAD3
:1054E0000C0F93EA0C0F00F0478090EA010F48BFC1
:1054F00042F480724FF0004C4CEA00204CEA01214B
:1055000002EB0302A0FB0113A2F50002002918BF61
:1055100043F001035B0028BF4FEA330342EB224212
:105520005FEA132C4CEBC2502EBFBCEB436FB2F5BD
:105530007C0F70474FEA036CBCF1004F08BF20F0AE
:105540000100B2F57C0F38BF70470BD582F0FF0227
:1055500012F5803FC8BF704700F1C040D8BF00F0CF
:105560000040704700F5000C5FEA4C0C48BF7047E4
:10557000B0F1C04000F073B890EA010F0CEAD1130B
:1055800048BF42F48072624538BF634504D280EA66
:10559000010000F00040704710B500F01AF800BF9D
:1055A0008900013E00F007B800F009B85FEA410C3D
:1055B0005FEA1C6C08D080EA010000F050B85FEA96
:1055C000400C5FEA1C6CF6D14FF00040A0F5800063
:1055D00070470EF1020E2EF0030E5EF8044B2442CB
:1055E00004D44FEA4102B2F17F4F11D84FEA400391
:1055F000B3F17F4F0CD80ED14FEAD07CB2F17F4F80
:105600000CEB4C0C0CF1020C08BF4CEBD17C04E011
:105610004FF0080C01E04FEAD17C0CEB4C0324FA6C
:1056200003F404F00704B4F1040C06D20EEB840C6E
:10563000BDE810404CF0010C6047DFE80CF00708B3
:1056400002024FF00040A0F5800010BD0846420065
:1056500018BFD2F1807288BF00F0004010BDFF215A
:1056600041EAD050C0057047102824E32428504256
:10567000424AD26A4640C00001F9494F49F9010047
:1056800040807F000001000020102CE7242400FE51
:105690009292929292FE00000101017F211100FE80
:1056A0004424007E8884E200101012D2525F52F22D
:1056B000525F52D2121010000000009F5232121F8F
:1056C0001232529F000000000808E8292E28E8083E
:1056D00008C80C0BE80808000000FF0949897F0092
:1056E000000F40807F0000001010101010FF1010FD
:1056F000F0101116D0101000804020180641201024
:105700003F4442414040780000000000000000009B
:10571000002F000000000700070000147F147F1412
:1057200000242A7F2A120062640813230036495598
:10573000225000000503000000001C224100000070
:1057400041221C000014083E08140008083E080806
:10575000000000A060000008080808080000606061
:105760000000002010080402003E5149453E0000A0
:10577000427F4000004261514946002141454B3182
:10578000001814127F10002745454539003C4A494E
:1057900049300001710905030036494949360006C0
:1057A0004949291E00003636000000005636000028
:1057B00000081422410000141414141400004122A3
:1057C000140800020151090600324959513E007C7B
:1057D0001211127C007F49494936003E4141412265
:1057E000007F4141221C007F49494941007F09094E
:1057F0000901003E4149497A007F0808087F0000FE
:10580000417F4100002040413F01007F08142241B8
:10581000007F40404040007F020C027F007F040870
:10582000107F003E4141413E007F09090906003ECC
:105830004151215E007F09192946004649494931F5
:105840000001017F0101003F4040403F001F204018
:10585000201F003F4038403F0063140814630007D6
:105860000870080700615149454300007F4141002D
:1058700000552A552A55000041417F0000040201CD
:1058800002040040404040400000010204000020AB
:1058900054545478007F48444438003844444420E9
:1058A00000384444487F00385454541800087E0996
:1058B00001020018A4A4A47C007F0804047800005E
:1058C000447D4000004080847D00007F102844001B
:1058D0000000417F4000007C04180478007C08042C
:1058E000047800384444443800FC24242418001868
:1058F000242418FC007C0804040800485454542054
:1059000000043F444020003C4040207C001C2040DC
:10591000201C003C4030403C004428102844001C1F
:10592000A0A0A07C004464544C4414141414141417
:105930000000000000000000000000000000000067
:10594000000000F8000000000000003330000000FC
:1059500000100C06100C0600000000000000000003
:1059600040C07840C0784000043F04043F04040075
:10597000007088FC08300000001820FF211E000085
:10598000F008F000E018000000211C031E211E009A
:1059900000F00888700000001E2123241927211020
:1059A00010160E00000000000000000000000000C3
:1059B000000000E01804020000000007182040006A
:1059C00000020418E000000000402018070000005A
:1059D000404080F0804040000202010F01020200BE
:1059E000000000F0000000000101011F01010100A2
:1059F000000000000000000080B070000000000007
:105A0000000000000000000000010101010101018F
:105A10000000000000000000003030000000000026
:105A200000000000806018040060180601000000FB
:105A300000E010080810E000000F102020100F00F8
:105A4000001010F8000000000020203F202000007F
:105A500000700808088870000030282422213000D7
:105A600000300888884830000018202020110E00DF
:105A70000000C02010F8000000070424243F240088
:105A800000F80888880808000019212020110E005D
:105A900000E0108888180000000F112020110E006F
:105AA00000380808C83808000000003F0000000067
:105AB0000070880808887000001C222121221C0028
:105AC00000E010080810E0000000312222110F0051
:105AD000000000C0C00000000000003030000000E6
:105AE0000000008000000000000080600000000056
:105AF000000080402010080000010204081020006F
:105B000040404040404040000404040404040400B9
:105B1000000810204080000000201008040201004E
:105B2000007048080808F00000000030360100004E
:105B3000C030C828E810E0000718272423140B0001
:105B40000000C038E0000000203C2302022738207B
:105B500008F8888888700000203F202020110E005F
:105B6000C030080808083800071820202010080056
:105B700008F808080810E000203F202020100F003F
:105B800008F88888E8081000203F2020232018000B
:105B900008F88888E8081000203F20000300000073
:105BA000C03008080838000007182020221E020014
:105BB00008F808000008F808203F210101213F20D3
:105BC000000808F8080800000020203F20200000FE
:105BD00000000808F8080800C08080807F000000EE
:105BE00008F888C028180800203F20012638200027
:105BF00008F8080000000000203F2020202030008E
:105C000008F8F800F8F80800203F003F003F2000A7
:105C100008F830C00008F808203F200007183F00AF
:105C2000E01008080810E0000F10202020100F00DE
:105C300008F808080808F000203F210101010000D1
:105C4000E01008080810E0000F18242438504F0016
:105C500008F8888888887000203F2000030C3020D6
:105C600000708808080838000038202121221C0014
:105C7000180808F8080818000000203F200000005D
:105C800008F808000008F808001F202020201F0046
:105C90000878880000C83808000007380E010000A6
:105CA000F80800F80008F800033C0700073C030070
:105CB000081868808068180820302C03032C3020D6
:105CC0000838C800C83808000000203F2000000045
:105CD00010080808C838080020382621202018009D
:105CE000000000FE020202000000007F4040400071
:105CF000000C30C000000000000000010638C000A9
:105D000000020202FE000000004040407F00000050
:105D10000000040202020400000000000000000075
:105D20000000000000000000808080808080808073
:105D3000000202040000000000000000000000005B
:105D400000008080808000000019242222223F2051
:105D500008F8008080000000003F112020110E0094
:105D60000000008080800000000E11202020110023
:105D7000000000808088F800000E112020103F20D5
:105D80000000808080800000001F22222222130059
:105D9000008080F0888888180020203F20200000A4
:105DA0000000808080808000006B94949493600059
:105DB00008F8008080800000203F210000203F2064
:105DC00000809898000000000020203F2020000064
:105DD000000000809898000000C08080807F000054
:105DE00008F8000080808000203F24022D30200031
:105DF000000808F8000000000020203F20200000DC
:105E00008080808080808000203F20003F20003FF5
:105E10008080008080800000203F210000203F2003
:105E20000000808080800000001F202020201F00B4
:105E3000808000808000000080FFA12020110E00E3
:105E40000000008080808000000E112020A0FF80D4
:105E5000808080008080800020203F212000010081
:105E600000008080808080000033242424241900D6
:105E7000008080E0808000000000001F20200000E3
:105E80008080000000808000001F202020103F2024
:105E9000808080000080808000010E3008060100B4
:105EA00080800080008080800F300C030C300F0059
:105EB00000808000808080000020312E0E31200084
:105EC000808080000080808080818E7018060100B4
:105ED00000808080808080000021302C22213000D2
:105EE00000000000807C020200000000003F4040F3
:105EF00000000000FF00000000000000FF000000A4
:105F00000002027C800000000040403F00000000D2
:105F1000000601010202040400000000000000006D
:105F2000405F000800000020380000002829000819
:105F3000785F000838000020100B0000442900089A
:105F400000A24A0400000000000000000102030457
:105F5000060708090000000001020304010203040F
:105F600006070809020406080000000000000000FF
:085F7000000000000000000029
:04000005080028EDDA
:00000001FF
